{
  "_format": "hh-sol-artifact-1",
  "contractName": "BurnableToken",
  "sourceName": "contracts/BurnableToken.sol",
  "abi": [
    {
      "inputs": [
        {
          "internalType": "string",
          "name": "tName",
          "type": "string"
        },
        {
          "internalType": "string",
          "name": "tSymbol",
          "type": "string"
        },
        {
          "internalType": "uint256",
          "name": "tSupply",
          "type": "uint256"
        }
      ],
      "stateMutability": "nonpayable",
      "type": "constructor"
    },
    {
      "anonymous": false,
      "inputs": [
        {
          "indexed": true,
          "internalType": "address",
          "name": "owner",
          "type": "address"
        },
        {
          "indexed": true,
          "internalType": "address",
          "name": "spender",
          "type": "address"
        },
        {
          "indexed": false,
          "internalType": "uint256",
          "name": "value",
          "type": "uint256"
        }
      ],
      "name": "Approval",
      "type": "event"
    },
    {
      "anonymous": false,
      "inputs": [
        {
          "indexed": true,
          "internalType": "address",
          "name": "from",
          "type": "address"
        },
        {
          "indexed": true,
          "internalType": "address",
          "name": "to",
          "type": "address"
        },
        {
          "indexed": false,
          "internalType": "uint256",
          "name": "value",
          "type": "uint256"
        }
      ],
      "name": "Transfer",
      "type": "event"
    },
    {
      "inputs": [],
      "name": "MAX_FEE",
      "outputs": [
        {
          "internalType": "uint256",
          "name": "",
          "type": "uint256"
        }
      ],
      "stateMutability": "view",
      "type": "function"
    },
    {
      "inputs": [
        {
          "internalType": "address",
          "name": "owner",
          "type": "address"
        },
        {
          "internalType": "address",
          "name": "spender",
          "type": "address"
        }
      ],
      "name": "allowance",
      "outputs": [
        {
          "internalType": "uint256",
          "name": "",
          "type": "uint256"
        }
      ],
      "stateMutability": "view",
      "type": "function"
    },
    {
      "inputs": [
        {
          "internalType": "address",
          "name": "spender",
          "type": "address"
        },
        {
          "internalType": "uint256",
          "name": "amount",
          "type": "uint256"
        }
      ],
      "name": "approve",
      "outputs": [
        {
          "internalType": "bool",
          "name": "",
          "type": "bool"
        }
      ],
      "stateMutability": "nonpayable",
      "type": "function"
    },
    {
      "inputs": [
        {
          "internalType": "address",
          "name": "account",
          "type": "address"
        }
      ],
      "name": "balanceOf",
      "outputs": [
        {
          "internalType": "uint256",
          "name": "",
          "type": "uint256"
        }
      ],
      "stateMutability": "view",
      "type": "function"
    },
    {
      "inputs": [
        {
          "internalType": "uint256",
          "name": "amount",
          "type": "uint256"
        }
      ],
      "name": "burn",
      "outputs": [],
      "stateMutability": "nonpayable",
      "type": "function"
    },
    {
      "inputs": [
        {
          "internalType": "address",
          "name": "account",
          "type": "address"
        },
        {
          "internalType": "uint256",
          "name": "amount",
          "type": "uint256"
        }
      ],
      "name": "burnFrom",
      "outputs": [],
      "stateMutability": "nonpayable",
      "type": "function"
    },
    {
      "inputs": [
        {
          "internalType": "uint256",
          "name": "amount",
          "type": "uint256"
        }
      ],
      "name": "buy",
      "outputs": [],
      "stateMutability": "nonpayable",
      "type": "function"
    },
    {
      "inputs": [],
      "name": "decimals",
      "outputs": [
        {
          "internalType": "uint8",
          "name": "",
          "type": "uint8"
        }
      ],
      "stateMutability": "view",
      "type": "function"
    },
    {
      "inputs": [
        {
          "internalType": "address",
          "name": "spender",
          "type": "address"
        },
        {
          "internalType": "uint256",
          "name": "subtractedValue",
          "type": "uint256"
        }
      ],
      "name": "decreaseAllowance",
      "outputs": [
        {
          "internalType": "bool",
          "name": "",
          "type": "bool"
        }
      ],
      "stateMutability": "nonpayable",
      "type": "function"
    },
    {
      "inputs": [
        {
          "internalType": "address",
          "name": "spender",
          "type": "address"
        },
        {
          "internalType": "uint256",
          "name": "addedValue",
          "type": "uint256"
        }
      ],
      "name": "increaseAllowance",
      "outputs": [
        {
          "internalType": "bool",
          "name": "",
          "type": "bool"
        }
      ],
      "stateMutability": "nonpayable",
      "type": "function"
    },
    {
      "inputs": [
        {
          "internalType": "address",
          "name": "to",
          "type": "address"
        },
        {
          "internalType": "uint256",
          "name": "amount",
          "type": "uint256"
        }
      ],
      "name": "mint",
      "outputs": [],
      "stateMutability": "nonpayable",
      "type": "function"
    },
    {
      "inputs": [],
      "name": "name",
      "outputs": [
        {
          "internalType": "string",
          "name": "",
          "type": "string"
        }
      ],
      "stateMutability": "view",
      "type": "function"
    },
    {
      "inputs": [],
      "name": "symbol",
      "outputs": [
        {
          "internalType": "string",
          "name": "",
          "type": "string"
        }
      ],
      "stateMutability": "view",
      "type": "function"
    },
    {
      "inputs": [],
      "name": "totalSupply",
      "outputs": [
        {
          "internalType": "uint256",
          "name": "",
          "type": "uint256"
        }
      ],
      "stateMutability": "view",
      "type": "function"
    },
    {
      "inputs": [
        {
          "internalType": "address",
          "name": "to",
          "type": "address"
        },
        {
          "internalType": "uint256",
          "name": "amount",
          "type": "uint256"
        }
      ],
      "name": "transfer",
      "outputs": [
        {
          "internalType": "bool",
          "name": "",
          "type": "bool"
        }
      ],
      "stateMutability": "nonpayable",
      "type": "function"
    },
    {
      "inputs": [
        {
          "internalType": "address",
          "name": "from",
          "type": "address"
        },
        {
          "internalType": "address",
          "name": "to",
          "type": "address"
        },
        {
          "internalType": "uint256",
          "name": "amount",
          "type": "uint256"
        }
      ],
      "name": "transferFrom",
      "outputs": [
        {
          "internalType": "bool",
          "name": "",
          "type": "bool"
        }
      ],
      "stateMutability": "nonpayable",
      "type": "function"
    }
  ],
  "bytecode": "0x60806040523480156200001157600080fd5b5060405162002155380380620021558339818101604052810190620000379190620003d4565b828281600390816200004a9190620006af565b5080600490816200005c9190620006af565b5050506200008630670de0b6b3a7640000836200007a9190620007c5565b6200008f60201b60201c565b505050620008fc565b600073ffffffffffffffffffffffffffffffffffffffff168273ffffffffffffffffffffffffffffffffffffffff160362000101576040517f08c379a0000000000000000000000000000000000000000000000000000000008152600401620000f89062000871565b60405180910390fd5b6200011560008383620001fc60201b60201c565b806002600082825462000129919062000893565b92505081905550806000808473ffffffffffffffffffffffffffffffffffffffff1673ffffffffffffffffffffffffffffffffffffffff168152602001908152602001600020600082825401925050819055508173ffffffffffffffffffffffffffffffffffffffff16600073ffffffffffffffffffffffffffffffffffffffff167fddf252ad1be2c89b69c2b068fc378daa952ba7f163c4a11628f55a4df523b3ef83604051620001dc9190620008df565b60405180910390a3620001f8600083836200020160201b60201c565b5050565b505050565b505050565b6000604051905090565b600080fd5b600080fd5b600080fd5b600080fd5b6000601f19601f8301169050919050565b7f4e487b7100000000000000000000000000000000000000000000000000000000600052604160045260246000fd5b6200026f8262000224565b810181811067ffffffffffffffff8211171562000291576200029062000235565b5b80604052505050565b6000620002a662000206565b9050620002b4828262000264565b919050565b600067ffffffffffffffff821115620002d757620002d662000235565b5b620002e28262000224565b9050602081019050919050565b60005b838110156200030f578082015181840152602081019050620002f2565b60008484015250505050565b6000620003326200032c84620002b9565b6200029a565b9050828152602081018484840111156200035157620003506200021f565b5b6200035e848285620002ef565b509392505050565b600082601f8301126200037e576200037d6200021a565b5b8151620003908482602086016200031b565b91505092915050565b6000819050919050565b620003ae8162000399565b8114620003ba57600080fd5b50565b600081519050620003ce81620003a3565b92915050565b600080600060608486031215620003f057620003ef62000210565b5b600084015167ffffffffffffffff81111562000411576200041062000215565b5b6200041f8682870162000366565b935050602084015167ffffffffffffffff81111562000443576200044262000215565b5b620004518682870162000366565b92505060406200046486828701620003bd565b9150509250925092565b600081519050919050565b7f4e487b7100000000000000000000000000000000000000000000000000000000600052602260045260246000fd5b60006002820490506001821680620004c157607f821691505b602082108103620004d757620004d662000479565b5b50919050565b60008190508160005260206000209050919050565b60006020601f8301049050919050565b600082821b905092915050565b600060088302620005417fffffffffffffffffffffffffffffffffffffffffffffffffffffffffffffffff8262000502565b6200054d868362000502565b95508019841693508086168417925050509392505050565b6000819050919050565b6000620005906200058a620005848462000399565b62000565565b62000399565b9050919050565b6000819050919050565b620005ac836200056f565b620005c4620005bb8262000597565b8484546200050f565b825550505050565b600090565b620005db620005cc565b620005e8818484620005a1565b505050565b5b81811015620006105762000604600082620005d1565b600181019050620005ee565b5050565b601f8211156200065f576200062981620004dd565b6200063484620004f2565b8101602085101562000644578190505b6200065c6200065385620004f2565b830182620005ed565b50505b505050565b600082821c905092915050565b6000620006846000198460080262000664565b1980831691505092915050565b60006200069f838362000671565b9150826002028217905092915050565b620006ba826200046e565b67ffffffffffffffff811115620006d657620006d562000235565b5b620006e28254620004a8565b620006ef82828562000614565b600060209050601f83116001811462000727576000841562000712578287015190505b6200071e858262000691565b8655506200078e565b601f1984166200073786620004dd565b60005b8281101562000761578489015182556001820191506020850194506020810190506200073a565b868310156200078157848901516200077d601f89168262000671565b8355505b6001600288020188555050505b505050505050565b7f4e487b7100000000000000000000000000000000000000000000000000000000600052601160045260246000fd5b6000620007d28262000399565b9150620007df8362000399565b9250828202620007ef8162000399565b9150828204841483151762000809576200080862000796565b5b5092915050565b600082825260208201905092915050565b7f45524332303a206d696e7420746f20746865207a65726f206164647265737300600082015250565b600062000859601f8362000810565b9150620008668262000821565b602082019050919050565b600060208201905081810360008301526200088c816200084a565b9050919050565b6000620008a08262000399565b9150620008ad8362000399565b9250828201905080821115620008c857620008c762000796565b5b92915050565b620008d98162000399565b82525050565b6000602082019050620008f66000830184620008ce565b92915050565b611849806200090c6000396000f3fe608060405234801561001057600080fd5b50600436106101005760003560e01c806370a0823111610097578063a9059cbb11610066578063a9059cbb146102c1578063bc063e1a146102f1578063d96a094a1461030f578063dd62ed3e1461032b57610100565b806370a082311461022757806379cc67901461025757806395d89b4114610273578063a457c2d71461029157610100565b8063313ce567116100d3578063313ce567146101a157806339509351146101bf57806340c10f19146101ef57806342966c681461020b57610100565b806306fdde0314610105578063095ea7b31461012357806318160ddd1461015357806323b872dd14610171575b600080fd5b61010d61035b565b60405161011a9190610f69565b60405180910390f35b61013d60048036038101906101389190611024565b6103ed565b60405161014a919061107f565b60405180910390f35b61015b610410565b60405161016891906110a9565b60405180910390f35b61018b600480360381019061018691906110c4565b61041a565b604051610198919061107f565b60405180910390f35b6101a9610449565b6040516101b69190611133565b60405180910390f35b6101d960048036038101906101d49190611024565b610452565b6040516101e6919061107f565b60405180910390f35b61020960048036038101906102049190611024565b610489565b005b6102256004803603810190610220919061114e565b610497565b005b610241600480360381019061023c919061117b565b6104ab565b60405161024e91906110a9565b60405180910390f35b610271600480360381019061026c9190611024565b6104f3565b005b61027b610513565b6040516102889190610f69565b60405180910390f35b6102ab60048036038101906102a69190611024565b6105a5565b6040516102b8919061107f565b60405180910390f35b6102db60048036038101906102d69190611024565b61061c565b6040516102e8919061107f565b60405180910390f35b6102f961063f565b60405161030691906110a9565b60405180910390f35b6103296004803603810190610324919061114e565b610645565b005b610345600480360381019061034091906111a8565b610652565b60405161035291906110a9565b60405180910390f35b60606003805461036a90611217565b80601f016020809104026020016040519081016040528092919081815260200182805461039690611217565b80156103e35780601f106103b8576101008083540402835291602001916103e3565b820191906000526020600020905b8154815290600101906020018083116103c657829003601f168201915b5050505050905090565b6000806103f86106d9565b90506104058185856106e1565b600191505092915050565b6000600254905090565b6000806104256106d9565b90506104328582856108aa565b61043d858585610936565b60019150509392505050565b60006012905090565b60008061045d6106d9565b905061047e81858561046f8589610652565b6104799190611277565b6106e1565b600191505092915050565b6104938282610bac565b5050565b6104a86104a26106d9565b82610d02565b50565b60008060008373ffffffffffffffffffffffffffffffffffffffff1673ffffffffffffffffffffffffffffffffffffffff168152602001908152602001600020549050919050565b610505826104ff6106d9565b836108aa565b61050f8282610d02565b5050565b60606004805461052290611217565b80601f016020809104026020016040519081016040528092919081815260200182805461054e90611217565b801561059b5780601f106105705761010080835404028352916020019161059b565b820191906000526020600020905b81548152906001019060200180831161057e57829003601f168201915b5050505050905090565b6000806105b06106d9565b905060006105be8286610652565b905083811015610603576040517f08c379a00000000000000000000000000000000000000000000000000000000081526004016105fa9061131d565b60405180910390fd5b61061082868684036106e1565b60019250505092915050565b6000806106276106d9565b9050610634818585610936565b600191505092915050565b61271081565b61064f3382610bac565b50565b6000600160008473ffffffffffffffffffffffffffffffffffffffff1673ffffffffffffffffffffffffffffffffffffffff16815260200190815260200160002060008373ffffffffffffffffffffffffffffffffffffffff1673ffffffffffffffffffffffffffffffffffffffff16815260200190815260200160002054905092915050565b600033905090565b600073ffffffffffffffffffffffffffffffffffffffff168373ffffffffffffffffffffffffffffffffffffffff1603610750576040517f08c379a0000000000000000000000000000000000000000000000000000000008152600401610747906113af565b60405180910390fd5b600073ffffffffffffffffffffffffffffffffffffffff168273ffffffffffffffffffffffffffffffffffffffff16036107bf576040517f08c379a00000000000000000000000000000000000000000000000000000000081526004016107b690611441565b60405180910390fd5b80600160008573ffffffffffffffffffffffffffffffffffffffff1673ffffffffffffffffffffffffffffffffffffffff16815260200190815260200160002060008473ffffffffffffffffffffffffffffffffffffffff1673ffffffffffffffffffffffffffffffffffffffff168152602001908152602001600020819055508173ffffffffffffffffffffffffffffffffffffffff168373ffffffffffffffffffffffffffffffffffffffff167f8c5be1e5ebec7d5bd14f71427d1e84f3dd0314c0f7b2291e5b200ac8c7c3b9258360405161089d91906110a9565b60405180910390a3505050565b60006108b68484610652565b90507fffffffffffffffffffffffffffffffffffffffffffffffffffffffffffffffff81146109305781811015610922576040517f08c379a0000000000000000000000000000000000000000000000000000000008152600401610919906114ad565b60405180910390fd5b61092f84848484036106e1565b5b50505050565b600073ffffffffffffffffffffffffffffffffffffffff168373ffffffffffffffffffffffffffffffffffffffff16036109a5576040517f08c379a000000000000000000000000000000000000000000000000000000000815260040161099c9061153f565b60405180910390fd5b600073ffffffffffffffffffffffffffffffffffffffff168273ffffffffffffffffffffffffffffffffffffffff1603610a14576040517f08c379a0000000000000000000000000000000000000000000000000000000008152600401610a0b906115d1565b60405180910390fd5b610a1f838383610ecf565b60008060008573ffffffffffffffffffffffffffffffffffffffff1673ffffffffffffffffffffffffffffffffffffffff16815260200190815260200160002054905081811015610aa5576040517f08c379a0000000000000000000000000000000000000000000000000000000008152600401610a9c90611663565b60405180910390fd5b8181036000808673ffffffffffffffffffffffffffffffffffffffff1673ffffffffffffffffffffffffffffffffffffffff16815260200190815260200160002081905550816000808573ffffffffffffffffffffffffffffffffffffffff1673ffffffffffffffffffffffffffffffffffffffff168152602001908152602001600020600082825401925050819055508273ffffffffffffffffffffffffffffffffffffffff168473ffffffffffffffffffffffffffffffffffffffff167fddf252ad1be2c89b69c2b068fc378daa952ba7f163c4a11628f55a4df523b3ef84604051610b9391906110a9565b60405180910390a3610ba6848484610ed4565b50505050565b600073ffffffffffffffffffffffffffffffffffffffff168273ffffffffffffffffffffffffffffffffffffffff1603610c1b576040517f08c379a0000000000000000000000000000000000000000000000000000000008152600401610c12906116cf565b60405180910390fd5b610c2760008383610ecf565b8060026000828254610c399190611277565b92505081905550806000808473ffffffffffffffffffffffffffffffffffffffff1673ffffffffffffffffffffffffffffffffffffffff168152602001908152602001600020600082825401925050819055508173ffffffffffffffffffffffffffffffffffffffff16600073ffffffffffffffffffffffffffffffffffffffff167fddf252ad1be2c89b69c2b068fc378daa952ba7f163c4a11628f55a4df523b3ef83604051610cea91906110a9565b60405180910390a3610cfe60008383610ed4565b5050565b600073ffffffffffffffffffffffffffffffffffffffff168273ffffffffffffffffffffffffffffffffffffffff1603610d71576040517f08c379a0000000000000000000000000000000000000000000000000000000008152600401610d6890611761565b60405180910390fd5b610d7d82600083610ecf565b60008060008473ffffffffffffffffffffffffffffffffffffffff1673ffffffffffffffffffffffffffffffffffffffff16815260200190815260200160002054905081811015610e03576040517f08c379a0000000000000000000000000000000000000000000000000000000008152600401610dfa906117f3565b60405180910390fd5b8181036000808573ffffffffffffffffffffffffffffffffffffffff1673ffffffffffffffffffffffffffffffffffffffff1681526020019081526020016000208190555081600260008282540392505081905550600073ffffffffffffffffffffffffffffffffffffffff168373ffffffffffffffffffffffffffffffffffffffff167fddf252ad1be2c89b69c2b068fc378daa952ba7f163c4a11628f55a4df523b3ef84604051610eb691906110a9565b60405180910390a3610eca83600084610ed4565b505050565b505050565b505050565b600081519050919050565b600082825260208201905092915050565b60005b83811015610f13578082015181840152602081019050610ef8565b60008484015250505050565b6000601f19601f8301169050919050565b6000610f3b82610ed9565b610f458185610ee4565b9350610f55818560208601610ef5565b610f5e81610f1f565b840191505092915050565b60006020820190508181036000830152610f838184610f30565b905092915050565b600080fd5b600073ffffffffffffffffffffffffffffffffffffffff82169050919050565b6000610fbb82610f90565b9050919050565b610fcb81610fb0565b8114610fd657600080fd5b50565b600081359050610fe881610fc2565b92915050565b6000819050919050565b61100181610fee565b811461100c57600080fd5b50565b60008135905061101e81610ff8565b92915050565b6000806040838503121561103b5761103a610f8b565b5b600061104985828601610fd9565b925050602061105a8582860161100f565b9150509250929050565b60008115159050919050565b61107981611064565b82525050565b60006020820190506110946000830184611070565b92915050565b6110a381610fee565b82525050565b60006020820190506110be600083018461109a565b92915050565b6000806000606084860312156110dd576110dc610f8b565b5b60006110eb86828701610fd9565b93505060206110fc86828701610fd9565b925050604061110d8682870161100f565b9150509250925092565b600060ff82169050919050565b61112d81611117565b82525050565b60006020820190506111486000830184611124565b92915050565b60006020828403121561116457611163610f8b565b5b60006111728482850161100f565b91505092915050565b60006020828403121561119157611190610f8b565b5b600061119f84828501610fd9565b91505092915050565b600080604083850312156111bf576111be610f8b565b5b60006111cd85828601610fd9565b92505060206111de85828601610fd9565b9150509250929050565b7f4e487b7100000000000000000000000000000000000000000000000000000000600052602260045260246000fd5b6000600282049050600182168061122f57607f821691505b602082108103611242576112416111e8565b5b50919050565b7f4e487b7100000000000000000000000000000000000000000000000000000000600052601160045260246000fd5b600061128282610fee565b915061128d83610fee565b92508282019050808211156112a5576112a4611248565b5b92915050565b7f45524332303a2064656372656173656420616c6c6f77616e63652062656c6f7760008201527f207a65726f000000000000000000000000000000000000000000000000000000602082015250565b6000611307602583610ee4565b9150611312826112ab565b604082019050919050565b60006020820190508181036000830152611336816112fa565b9050919050565b7f45524332303a20617070726f76652066726f6d20746865207a65726f2061646460008201527f7265737300000000000000000000000000000000000000000000000000000000602082015250565b6000611399602483610ee4565b91506113a48261133d565b604082019050919050565b600060208201905081810360008301526113c88161138c565b9050919050565b7f45524332303a20617070726f766520746f20746865207a65726f20616464726560008201527f7373000000000000000000000000000000000000000000000000000000000000602082015250565b600061142b602283610ee4565b9150611436826113cf565b604082019050919050565b6000602082019050818103600083015261145a8161141e565b9050919050565b7f45524332303a20696e73756666696369656e7420616c6c6f77616e6365000000600082015250565b6000611497601d83610ee4565b91506114a282611461565b602082019050919050565b600060208201905081810360008301526114c68161148a565b9050919050565b7f45524332303a207472616e736665722066726f6d20746865207a65726f20616460008201527f6472657373000000000000000000000000000000000000000000000000000000602082015250565b6000611529602583610ee4565b9150611534826114cd565b604082019050919050565b600060208201905081810360008301526115588161151c565b9050919050565b7f45524332303a207472616e7366657220746f20746865207a65726f206164647260008201527f6573730000000000000000000000000000000000000000000000000000000000602082015250565b60006115bb602383610ee4565b91506115c68261155f565b604082019050919050565b600060208201905081810360008301526115ea816115ae565b9050919050565b7f45524332303a207472616e7366657220616d6f756e742065786365656473206260008201527f616c616e63650000000000000000000000000000000000000000000000000000602082015250565b600061164d602683610ee4565b9150611658826115f1565b604082019050919050565b6000602082019050818103600083015261167c81611640565b9050919050565b7f45524332303a206d696e7420746f20746865207a65726f206164647265737300600082015250565b60006116b9601f83610ee4565b91506116c482611683565b602082019050919050565b600060208201905081810360008301526116e8816116ac565b9050919050565b7f45524332303a206275726e2066726f6d20746865207a65726f2061646472657360008201527f7300000000000000000000000000000000000000000000000000000000000000602082015250565b600061174b602183610ee4565b9150611756826116ef565b604082019050919050565b6000602082019050818103600083015261177a8161173e565b9050919050565b7f45524332303a206275726e20616d6f756e7420657863656564732062616c616e60008201527f6365000000000000000000000000000000000000000000000000000000000000602082015250565b60006117dd602283610ee4565b91506117e882611781565b604082019050919050565b6000602082019050818103600083015261180c816117d0565b905091905056fea2646970667358221220f7b1f8aa869849c87065a9a9db6bf230faf35c434856f31bdbbabb0b470f997764736f6c63430008120033",
  "linkReferences": {},
  "deployedLinkReferences": {}
}